{
  "contractName": "EcommerceStore",
  "abi": [
    {
      "constant": true,
      "inputs": [],
      "name": "productIndex",
      "outputs": [
        {
          "name": "",
          "type": "uint256"
        }
      ],
      "payable": false,
      "stateMutability": "view",
      "type": "function"
    },
    {
      "inputs": [],
      "payable": false,
      "stateMutability": "nonpayable",
      "type": "constructor"
    },
    {
      "anonymous": false,
      "inputs": [
        {
          "indexed": false,
          "name": "_productId",
          "type": "uint256"
        },
        {
          "indexed": false,
          "name": "_name",
          "type": "string"
        },
        {
          "indexed": false,
          "name": "_category",
          "type": "string"
        },
        {
          "indexed": false,
          "name": "_imageLink",
          "type": "string"
        },
        {
          "indexed": false,
          "name": "_descLink",
          "type": "string"
        },
        {
          "indexed": false,
          "name": "_auctionStartTime",
          "type": "uint256"
        },
        {
          "indexed": false,
          "name": "_auctionEndTime",
          "type": "uint256"
        },
        {
          "indexed": false,
          "name": "_startPrice",
          "type": "uint256"
        },
        {
          "indexed": false,
          "name": "_productCondition",
          "type": "uint256"
        }
      ],
      "name": "NewProduct",
      "type": "event"
    },
    {
      "constant": false,
      "inputs": [
        {
          "name": "_name",
          "type": "string"
        },
        {
          "name": "_category",
          "type": "string"
        },
        {
          "name": "_imageLink",
          "type": "string"
        },
        {
          "name": "_descLink",
          "type": "string"
        },
        {
          "name": "_auctionStartTime",
          "type": "uint256"
        },
        {
          "name": "_auctionEndTime",
          "type": "uint256"
        },
        {
          "name": "_startPrice",
          "type": "uint256"
        },
        {
          "name": "_productCondition",
          "type": "uint256"
        }
      ],
      "name": "addProductToStore",
      "outputs": [],
      "payable": false,
      "stateMutability": "nonpayable",
      "type": "function"
    },
    {
      "constant": true,
      "inputs": [
        {
          "name": "_productId",
          "type": "uint256"
        }
      ],
      "name": "getProduct",
      "outputs": [
        {
          "name": "",
          "type": "uint256"
        },
        {
          "name": "",
          "type": "string"
        },
        {
          "name": "",
          "type": "string"
        },
        {
          "name": "",
          "type": "string"
        },
        {
          "name": "",
          "type": "string"
        },
        {
          "name": "",
          "type": "uint256"
        },
        {
          "name": "",
          "type": "uint256"
        },
        {
          "name": "",
          "type": "uint256"
        },
        {
          "name": "",
          "type": "uint8"
        },
        {
          "name": "",
          "type": "uint8"
        }
      ],
      "payable": false,
      "stateMutability": "view",
      "type": "function"
    },
    {
      "constant": false,
      "inputs": [
        {
          "name": "_productId",
          "type": "uint256"
        },
        {
          "name": "_bid",
          "type": "bytes32"
        }
      ],
      "name": "bid",
      "outputs": [
        {
          "name": "",
          "type": "bool"
        }
      ],
      "payable": true,
      "stateMutability": "payable",
      "type": "function"
    },
    {
      "constant": false,
      "inputs": [
        {
          "name": "_productId",
          "type": "uint256"
        },
        {
          "name": "_amount",
          "type": "string"
        },
        {
          "name": "_secret",
          "type": "string"
        }
      ],
      "name": "revealBid",
      "outputs": [],
      "payable": false,
      "stateMutability": "nonpayable",
      "type": "function"
    },
    {
      "constant": true,
      "inputs": [
        {
          "name": "_productId",
          "type": "uint256"
        }
      ],
      "name": "highestBidderInfo",
      "outputs": [
        {
          "name": "",
          "type": "address"
        },
        {
          "name": "",
          "type": "uint256"
        },
        {
          "name": "",
          "type": "uint256"
        }
      ],
      "payable": false,
      "stateMutability": "view",
      "type": "function"
    },
    {
      "constant": true,
      "inputs": [
        {
          "name": "_productId",
          "type": "uint256"
        }
      ],
      "name": "totalBids",
      "outputs": [
        {
          "name": "",
          "type": "uint256"
        }
      ],
      "payable": false,
      "stateMutability": "view",
      "type": "function"
    },
    {
      "constant": false,
      "inputs": [
        {
          "name": "_productId",
          "type": "uint256"
        }
      ],
      "name": "finalizeAuction",
      "outputs": [],
      "payable": false,
      "stateMutability": "nonpayable",
      "type": "function"
    },
    {
      "constant": true,
      "inputs": [
        {
          "name": "_productId",
          "type": "uint256"
        }
      ],
      "name": "escrowAddressForProduct",
      "outputs": [
        {
          "name": "",
          "type": "address"
        }
      ],
      "payable": false,
      "stateMutability": "view",
      "type": "function"
    },
    {
      "constant": true,
      "inputs": [
        {
          "name": "_productId",
          "type": "uint256"
        }
      ],
      "name": "escrowInfo",
      "outputs": [
        {
          "name": "",
          "type": "address"
        },
        {
          "name": "",
          "type": "address"
        },
        {
          "name": "",
          "type": "address"
        },
        {
          "name": "",
          "type": "bool"
        },
        {
          "name": "",
          "type": "uint256"
        },
        {
          "name": "",
          "type": "uint256"
        }
      ],
      "payable": false,
      "stateMutability": "view",
      "type": "function"
    },
    {
      "constant": false,
      "inputs": [
        {
          "name": "_productId",
          "type": "uint256"
        }
      ],
      "name": "releaseAmountToSeller",
      "outputs": [],
      "payable": false,
      "stateMutability": "nonpayable",
      "type": "function"
    },
    {
      "constant": false,
      "inputs": [
        {
          "name": "_productId",
          "type": "uint256"
        }
      ],
      "name": "refundAmountToBuyer",
      "outputs": [],
      "payable": false,
      "stateMutability": "nonpayable",
      "type": "function"
    },
    {
      "constant": true,
      "inputs": [],
      "name": "getProductCount",
      "outputs": [
        {
          "name": "",
          "type": "uint256"
        }
      ],
      "payable": false,
      "stateMutability": "view",
      "type": "function"
    }
  ],
  "bytecode": "0x608060405234801561001057600080fd5b50600080819055506148bd806100276000396000f3006080604052600436106100c5576000357c0100000000000000000000000000000000000000000000000000000000900463ffffffff16806328e3d190146100ca5780634389754a1461010b5780634a348da91461017857806383560525146101a35780639a3a7c691461028f578063a508b955146102bc578063b9db15b41461041f578063c897d5a61461064f578063cc352db71461067a578063ce818ea9146106a7578063e808386314610722578063ea1591bb1461074f578063f85f196e14610795575b600080fd5b3480156100d657600080fd5b506100f56004803603810190808035906020019092919050505061084e565b6040518082815260200191505060405180910390f35b34801561011757600080fd5b5061013660048036038101908080359060200190929190505050610c76565b604051808273ffffffffffffffffffffffffffffffffffffffff1673ffffffffffffffffffffffffffffffffffffffff16815260200191505060405180910390f35b34801561018457600080fd5b5061018d610cb3565b6040518082815260200191505060405180910390f35b3480156101af57600080fd5b506101ce60048036038101908080359060200190929190505050610cbc565b604051808773ffffffffffffffffffffffffffffffffffffffff1673ffffffffffffffffffffffffffffffffffffffff1681526020018673ffffffffffffffffffffffffffffffffffffffff1673ffffffffffffffffffffffffffffffffffffffff1681526020018573ffffffffffffffffffffffffffffffffffffffff1673ffffffffffffffffffffffffffffffffffffffff16815260200184151515158152602001838152602001828152602001965050505050505060405180910390f35b34801561029b57600080fd5b506102ba60048036038101908080359060200190929190505050610dde565b005b3480156102c857600080fd5b5061041d600480360381019080803590602001908201803590602001908080601f0160208091040260200160405190810160405280939291908181526020018383808284378201915050505050509192919290803590602001908201803590602001908080601f0160208091040260200160405190810160405280939291908181526020018383808284378201915050505050509192919290803590602001908201803590602001908080601f0160208091040260200160405190810160405280939291908181526020018383808284378201915050505050509192919290803590602001908201803590602001908080601f016020809104026020016040519081016040528093929190818152602001838380828437820191505050505050919291929080359060200190929190803590602001909291908035906020019092919080359060200190929190505050610ec7565b005b34801561042b57600080fd5b5061044a600480360381019080803590602001909291905050506114d1565b604051808b8152602001806020018060200180602001806020018a815260200189815260200188815260200187600281111561048257fe5b60ff16815260200186600181111561049657fe5b60ff16815260200185810385528e818151815260200191508051906020019080838360005b838110156104d65780820151818401526020810190506104bb565b50505050905090810190601f1680156105035780820380516001836020036101000a031916815260200191505b5085810384528d818151815260200191508051906020019080838360005b8381101561053c578082015181840152602081019050610521565b50505050905090810190601f1680156105695780820380516001836020036101000a031916815260200191505b5085810383528c818151815260200191508051906020019080838360005b838110156105a2578082015181840152602081019050610587565b50505050905090810190601f1680156105cf5780820380516001836020036101000a031916815260200191505b5085810382528b818151815260200191508051906020019080838360005b838110156106085780820151818401526020810190506105ed565b50505050905090810190601f1680156106355780820380516001836020036101000a031916815260200191505b509e50505050505050505050505050505060405180910390f35b34801561065b57600080fd5b5061066461195b565b6040518082815260200191505060405180910390f35b34801561068657600080fd5b506106a560048036038101908080359060200190929190505050611961565b005b3480156106b357600080fd5b506106d260048036038101908080359060200190929190505050611a4a565b604051808473ffffffffffffffffffffffffffffffffffffffff1673ffffffffffffffffffffffffffffffffffffffff168152602001838152602001828152602001935050505060405180910390f35b34801561072e57600080fd5b5061074d60048036038101908080359060200190929190505050611e87565b005b61077b600480360381019080803590602001909291908035600019169060200190929190505050612968565b604051808215151515815260200191505060405180910390f35b3480156107a157600080fd5b5061084c60048036038101908080359060200190929190803590602001908201803590602001908080601f0160208091040260200160405190810160405280939291908181526020018383808284378201915050505050509192919290803590602001908201803590602001908080601f0160208091040260200160405190810160405280939291908181526020018383808284378201915050505050509192919290505050612e11565b005b6000610858613626565b600260006001600086815260200190815260200160002060009054906101000a900473ffffffffffffffffffffffffffffffffffffffff1673ffffffffffffffffffffffffffffffffffffffff1673ffffffffffffffffffffffffffffffffffffffff16815260200190815260200160002060008481526020019081526020016000206101c0604051908101604052908160008201548152602001600182018054600181600116156101000203166002900480601f01602080910402602001604051908101604052809291908181526020018280546001816001161561010002031660029004801561098b5780601f106109605761010080835404028352916020019161098b565b820191906000526020600020905b81548152906001019060200180831161096e57829003601f168201915b50505050508152602001600282018054600181600116156101000203166002900480601f016020809104026020016040519081016040528092919081815260200182805460018160011615610100020316600290048015610a2d5780601f10610a0257610100808354040283529160200191610a2d565b820191906000526020600020905b815481529060010190602001808311610a1057829003601f168201915b50505050508152602001600382018054600181600116156101000203166002900480601f016020809104026020016040519081016040528092919081815260200182805460018160011615610100020316600290048015610acf5780601f10610aa457610100808354040283529160200191610acf565b820191906000526020600020905b815481529060010190602001808311610ab257829003601f168201915b50505050508152602001600482018054600181600116156101000203166002900480601f016020809104026020016040519081016040528092919081815260200182805460018160011615610100020316600290048015610b715780601f10610b4657610100808354040283529160200191610b71565b820191906000526020600020905b815481529060010190602001808311610b5457829003601f168201915b505050505081526020016005820154815260200160068201548152602001600782015481526020016008820160009054906101000a900473ffffffffffffffffffffffffffffffffffffffff1673ffffffffffffffffffffffffffffffffffffffff1673ffffffffffffffffffffffffffffffffffffffff16815260200160098201548152602001600a8201548152602001600b8201548152602001600c820160009054906101000a900460ff166002811115610c2a57fe5b6002811115610c3557fe5b8152602001600c820160019054906101000a900460ff166001811115610c5757fe5b6001811115610c6257fe5b815250509050806101600151915050919050565b60006003600083815260200190815260200160002060009054906101000a900473ffffffffffffffffffffffffffffffffffffffff169050919050565b60008054905090565b6000806000806000806003600088815260200190815260200160002060009054906101000a900473ffffffffffffffffffffffffffffffffffffffff1673ffffffffffffffffffffffffffffffffffffffff1663f3d259046040518163ffffffff167c010000000000000000000000000000000000000000000000000000000002815260040160c060405180830381600087803b158015610d5c57600080fd5b505af1158015610d70573d6000803e3d6000fd5b505050506040513d60c0811015610d8657600080fd5b8101908080519060200190929190805190602001909291908051906020019092919080519060200190929190805190602001909291908051906020019092919050505095509550955095509550955091939550919395565b6003600082815260200190815260200160002060009054906101000a900473ffffffffffffffffffffffffffffffffffffffff1673ffffffffffffffffffffffffffffffffffffffff1663f919257c336040518263ffffffff167c0100000000000000000000000000000000000000000000000000000000028152600401808273ffffffffffffffffffffffffffffffffffffffff1673ffffffffffffffffffffffffffffffffffffffff168152602001915050600060405180830381600087803b158015610eac57600080fd5b505af1158015610ec0573d6000803e3d6000fd5b5050505050565b610ecf613626565b8342101515610f6c576040517f08c379a000000000000000000000000000000000000000000000000000000000815260040180806020018281038252602a8152602001807f41756374696f6e20656e642074696d652073686f756c64206265206c6174657281526020017f207468616e206e6f772e0000000000000000000000000000000000000000000081525060400191505060405180910390fd5b8385101515611009576040517f08c379a00000000000000000000000000000000000000000000000000000000081526004018080602001828103825260338152602001807f41756374696f6e2073746172742074696d652073686f756c642062652065617281526020017f6c696572207468616e20656e642074696d652e0000000000000000000000000081525060400191505060405180910390fd5b600160008082825401925050819055506101c06040519081016040528060005481526020018a8152602001898152602001888152602001878152602001868152602001858152602001848152602001600073ffffffffffffffffffffffffffffffffffffffff1681526020016000815260200160008152602001600081526020016000600281111561109757fe5b81526020018360018111156110a857fe5b60018111156110b357fe5b815250905080600260003373ffffffffffffffffffffffffffffffffffffffff1673ffffffffffffffffffffffffffffffffffffffff1681526020019081526020016000206000805481526020019081526020016000206000820151816000015560208201518160010190805190602001906111309291906136c2565b50604082015181600201908051906020019061114d9291906136c2565b50606082015181600301908051906020019061116a9291906136c2565b5060808201518160040190805190602001906111879291906136c2565b5060a0820151816005015560c0820151816006015560e082015181600701556101008201518160080160006101000a81548173ffffffffffffffffffffffffffffffffffffffff021916908373ffffffffffffffffffffffffffffffffffffffff160217905550610120820151816009015561014082015181600a015561016082015181600b015561018082015181600c0160006101000a81548160ff0219169083600281111561123457fe5b02179055506101a082015181600c0160016101000a81548160ff0219169083600181111561125e57fe5b021790555090505033600160008054815260200190815260200160002060006101000a81548173ffffffffffffffffffffffffffffffffffffffff021916908373ffffffffffffffffffffffffffffffffffffffff1602179055507f7246fb63256d85d227c3255d8d4f49ff574a42ec76096803c81c0d6b58ac5a716000548a8a8a8a8a8a8a8a604051808a81526020018060200180602001806020018060200189815260200188815260200187815260200186815260200185810385528d818151815260200191508051906020019080838360005b8381101561134f578082015181840152602081019050611334565b50505050905090810190601f16801561137c5780820380516001836020036101000a031916815260200191505b5085810384528c818151815260200191508051906020019080838360005b838110156113b557808201518184015260208101905061139a565b50505050905090810190601f1680156113e25780820380516001836020036101000a031916815260200191505b5085810383528b818151815260200191508051906020019080838360005b8381101561141b578082015181840152602081019050611400565b50505050905090810190601f1680156114485780820380516001836020036101000a031916815260200191505b5085810382528a818151815260200191508051906020019080838360005b83811015611481578082015181840152602081019050611466565b50505050905090810190601f1680156114ae5780820380516001836020036101000a031916815260200191505b509d505050505050505050505050505060405180910390a1505050505050505050565b600060608060608060008060008060006114e9613626565b60026000600160008f815260200190815260200160002060009054906101000a900473ffffffffffffffffffffffffffffffffffffffff1673ffffffffffffffffffffffffffffffffffffffff1673ffffffffffffffffffffffffffffffffffffffff16815260200190815260200160002060008d81526020019081526020016000206101c0604051908101604052908160008201548152602001600182018054600181600116156101000203166002900480601f01602080910402602001604051908101604052809291908181526020018280546001816001161561010002031660029004801561161c5780601f106115f15761010080835404028352916020019161161c565b820191906000526020600020905b8154815290600101906020018083116115ff57829003601f168201915b50505050508152602001600282018054600181600116156101000203166002900480601f0160208091040260200160405190810160405280929190818152602001828054600181600116156101000203166002900480156116be5780601f10611693576101008083540402835291602001916116be565b820191906000526020600020905b8154815290600101906020018083116116a157829003601f168201915b50505050508152602001600382018054600181600116156101000203166002900480601f0160208091040260200160405190810160405280929190818152602001828054600181600116156101000203166002900480156117605780601f1061173557610100808354040283529160200191611760565b820191906000526020600020905b81548152906001019060200180831161174357829003601f168201915b50505050508152602001600482018054600181600116156101000203166002900480601f0160208091040260200160405190810160405280929190818152602001828054600181600116156101000203166002900480156118025780601f106117d757610100808354040283529160200191611802565b820191906000526020600020905b8154815290600101906020018083116117e557829003601f168201915b505050505081526020016005820154815260200160068201548152602001600782015481526020016008820160009054906101000a900473ffffffffffffffffffffffffffffffffffffffff1673ffffffffffffffffffffffffffffffffffffffff1673ffffffffffffffffffffffffffffffffffffffff16815260200160098201548152602001600a8201548152602001600b8201548152602001600c820160009054906101000a900460ff1660028111156118bb57fe5b60028111156118c657fe5b8152602001600c820160019054906101000a900460ff1660018111156118e857fe5b60018111156118f357fe5b815250509050806000015181602001518260400151836060015184608001518560a001518660c001518760e00151886101800151896101a001518898508797508696508595509a509a509a509a509a509a509a509a509a509a50509193959799509193959799565b60005481565b6003600082815260200190815260200160002060009054906101000a900473ffffffffffffffffffffffffffffffffffffffff1673ffffffffffffffffffffffffffffffffffffffff1663a97d1b10336040518263ffffffff167c0100000000000000000000000000000000000000000000000000000000028152600401808273ffffffffffffffffffffffffffffffffffffffff1673ffffffffffffffffffffffffffffffffffffffff168152602001915050600060405180830381600087803b158015611a2f57600080fd5b505af1158015611a43573d6000803e3d6000fd5b5050505050565b6000806000611a57613626565b600260006001600088815260200190815260200160002060009054906101000a900473ffffffffffffffffffffffffffffffffffffffff1673ffffffffffffffffffffffffffffffffffffffff1673ffffffffffffffffffffffffffffffffffffffff16815260200190815260200160002060008681526020019081526020016000206101c0604051908101604052908160008201548152602001600182018054600181600116156101000203166002900480601f016020809104026020016040519081016040528092919081815260200182805460018160011615610100020316600290048015611b8a5780601f10611b5f57610100808354040283529160200191611b8a565b820191906000526020600020905b815481529060010190602001808311611b6d57829003601f168201915b50505050508152602001600282018054600181600116156101000203166002900480601f016020809104026020016040519081016040528092919081815260200182805460018160011615610100020316600290048015611c2c5780601f10611c0157610100808354040283529160200191611c2c565b820191906000526020600020905b815481529060010190602001808311611c0f57829003601f168201915b50505050508152602001600382018054600181600116156101000203166002900480601f016020809104026020016040519081016040528092919081815260200182805460018160011615610100020316600290048015611cce5780601f10611ca357610100808354040283529160200191611cce565b820191906000526020600020905b815481529060010190602001808311611cb157829003601f168201915b50505050508152602001600482018054600181600116156101000203166002900480601f016020809104026020016040519081016040528092919081815260200182805460018160011615610100020316600290048015611d705780601f10611d4557610100808354040283529160200191611d70565b820191906000526020600020905b815481529060010190602001808311611d5357829003601f168201915b505050505081526020016005820154815260200160068201548152602001600782015481526020016008820160009054906101000a900473ffffffffffffffffffffffffffffffffffffffff1673ffffffffffffffffffffffffffffffffffffffff1673ffffffffffffffffffffffffffffffffffffffff16815260200160098201548152602001600a8201548152602001600b8201548152602001600c820160009054906101000a900460ff166002811115611e2957fe5b6002811115611e3457fe5b8152602001600c820160019054906101000a900460ff166001811115611e5657fe5b6001811115611e6157fe5b815250509050806101000151816101200151826101400151935093509350509193909250565b611e8f613626565b600080600260006001600087815260200190815260200160002060009054906101000a900473ffffffffffffffffffffffffffffffffffffffff1673ffffffffffffffffffffffffffffffffffffffff1673ffffffffffffffffffffffffffffffffffffffff16815260200190815260200160002060008581526020019081526020016000206101c0604051908101604052908160008201548152602001600182018054600181600116156101000203166002900480601f016020809104026020016040519081016040528092919081815260200182805460018160011615610100020316600290048015611fc55780601f10611f9a57610100808354040283529160200191611fc5565b820191906000526020600020905b815481529060010190602001808311611fa857829003601f168201915b50505050508152602001600282018054600181600116156101000203166002900480601f0160208091040260200160405190810160405280929190818152602001828054600181600116156101000203166002900480156120675780601f1061203c57610100808354040283529160200191612067565b820191906000526020600020905b81548152906001019060200180831161204a57829003601f168201915b50505050508152602001600382018054600181600116156101000203166002900480601f0160208091040260200160405190810160405280929190818152602001828054600181600116156101000203166002900480156121095780601f106120de57610100808354040283529160200191612109565b820191906000526020600020905b8154815290600101906020018083116120ec57829003601f168201915b50505050508152602001600482018054600181600116156101000203166002900480601f0160208091040260200160405190810160405280929190818152602001828054600181600116156101000203166002900480156121ab5780601f10612180576101008083540402835291602001916121ab565b820191906000526020600020905b81548152906001019060200180831161218e57829003601f168201915b505050505081526020016005820154815260200160068201548152602001600782015481526020016008820160009054906101000a900473ffffffffffffffffffffffffffffffffffffffff1673ffffffffffffffffffffffffffffffffffffffff1673ffffffffffffffffffffffffffffffffffffffff16815260200160098201548152602001600a8201548152602001600b8201548152602001600c820160009054906101000a900460ff16600281111561226457fe5b600281111561226f57fe5b8152602001600c820160019054906101000a900460ff16600181111561229157fe5b600181111561229c57fe5b8152505092508260c0015142111515612343576040517f08c379a00000000000000000000000000000000000000000000000000000000081526004018080602001828103825260328152602001807f43757272656e742074696d652073686f756c64206265206c617465722074686181526020017f6e2061756374696f6e20656e642074696d65000000000000000000000000000081525060400191505060405180910390fd5b6000600281111561235057fe5b836101800151600281111561236157fe5b1415156123d6576040517f08c379a000000000000000000000000000000000000000000000000000000000815260040180806020018281038252601d8152602001807f50726f64756374207374617475732073686f756c64206265206f70656e00000081525060200191505060405180910390fd5b6001600085815260200190815260200160002060009054906101000a900473ffffffffffffffffffffffffffffffffffffffff1673ffffffffffffffffffffffffffffffffffffffff163373ffffffffffffffffffffffffffffffffffffffff16141515156124ad576040517f08c379a000000000000000000000000000000000000000000000000000000000815260040180806020018281038252601b8152602001807f43616c6c65722073686f756c64206e6f742062652073656c6c6572000000000081525060200191505060405180910390fd5b82610100015173ffffffffffffffffffffffffffffffffffffffff163373ffffffffffffffffffffffffffffffffffffffff1614151515612556576040517f08c379a000000000000000000000000000000000000000000000000000000000815260040180806020018281038252601a8152602001807f43616c6c65722073686f756c64206e6f7420626520627579657200000000000081525060200191505060405180910390fd5b600083610100015173ffffffffffffffffffffffffffffffffffffffff1614156125a3576002836101800190600281111561258d57fe5b9081600281111561259a57fe5b81525050612782565b826101400151846001600087815260200190815260200160002060009054906101000a900473ffffffffffffffffffffffffffffffffffffffff16856101000151336125ed613742565b808581526020018473ffffffffffffffffffffffffffffffffffffffff1673ffffffffffffffffffffffffffffffffffffffff1681526020018373ffffffffffffffffffffffffffffffffffffffff1673ffffffffffffffffffffffffffffffffffffffff1681526020018273ffffffffffffffffffffffffffffffffffffffff1673ffffffffffffffffffffffffffffffffffffffff1681526020019450505050506040518091039082f0801580156126ab573d6000803e3d6000fd5b5090509150816003600086815260200190815260200160002060006101000a81548173ffffffffffffffffffffffffffffffffffffffff021916908373ffffffffffffffffffffffffffffffffffffffff1602179055506001836101800190600281111561271557fe5b9081600281111561272257fe5b8152505082610140015183610120015103905082610100015173ffffffffffffffffffffffffffffffffffffffff166108fc829081150290604051600060405180830381858888f19350505050158015612780573d6000803e3d6000fd5b505b82600260006001600088815260200190815260200160002060009054906101000a900473ffffffffffffffffffffffffffffffffffffffff1673ffffffffffffffffffffffffffffffffffffffff1673ffffffffffffffffffffffffffffffffffffffff168152602001908152602001600020600086815260200190815260200160002060008201518160000155602082015181600101908051906020019061282c9291906136c2565b5060408201518160020190805190602001906128499291906136c2565b5060608201518160030190805190602001906128669291906136c2565b5060808201518160040190805190602001906128839291906136c2565b5060a0820151816005015560c0820151816006015560e082015181600701556101008201518160080160006101000a81548173ffffffffffffffffffffffffffffffffffffffff021916908373ffffffffffffffffffffffffffffffffffffffff160217905550610120820151816009015561014082015181600a015561016082015181600b015561018082015181600c0160006101000a81548160ff0219169083600281111561293057fe5b02179055506101a082015181600c0160016101000a81548160ff0219169083600181111561295a57fe5b021790555090505050505050565b600080600260006001600087815260200190815260200160002060009054906101000a900473ffffffffffffffffffffffffffffffffffffffff1673ffffffffffffffffffffffffffffffffffffffff1673ffffffffffffffffffffffffffffffffffffffff1681526020019081526020016000206000858152602001908152602001600020905080600501544210151515612a92576040517f08c379a00000000000000000000000000000000000000000000000000000000081526004018080602001828103825260348152602001807f43757272656e742074696d652073686f756c64206265206c617465722074686181526020017f6e2061756374696f6e2073746172742074696d6500000000000000000000000081525060400191505060405180910390fd5b80600601544211151515612b34576040517f08c379a00000000000000000000000000000000000000000000000000000000081526004018080602001828103825260348152602001807f43757272656e742074696d652073686f756c64206265206561726c696572207481526020017f68616e2061756374696f6e20656e642074696d6500000000000000000000000081525060400191505060405180910390fd5b806007015434111515612bd5576040517f08c379a00000000000000000000000000000000000000000000000000000000081526004018080602001828103825260278152602001807f56616c75652073686f756c64206265206c6172676572207468616e207374617281526020017f742070726963650000000000000000000000000000000000000000000000000081525060400191505060405180910390fd5b600081600d0160003373ffffffffffffffffffffffffffffffffffffffff1673ffffffffffffffffffffffffffffffffffffffff1681526020019081526020016000206000856000191660001916815260200190815260200160002060000160009054906101000a900473ffffffffffffffffffffffffffffffffffffffff1673ffffffffffffffffffffffffffffffffffffffff16141515612ce0576040517f08c379a00000000000000000000000000000000000000000000000000000000081526004018080602001828103825260158152602001807f4269646465722073686f756c64206265206e756c6c000000000000000000000081525060200191505060405180910390fd5b6080604051908101604052803373ffffffffffffffffffffffffffffffffffffffff1681526020018581526020013481526020016000151581525081600d0160003373ffffffffffffffffffffffffffffffffffffffff1673ffffffffffffffffffffffffffffffffffffffff1681526020019081526020016000206000856000191660001916815260200190815260200160002060008201518160000160006101000a81548173ffffffffffffffffffffffffffffffffffffffff021916908373ffffffffffffffffffffffffffffffffffffffff160217905550602082015181600101556040820151816002015560608201518160030160006101000a81548160ff021916908315150217905550905050600181600b0160008282540192505081905550600191505092915050565b600080612e1c613752565b60008060026000600160008b815260200190815260200160002060009054906101000a900473ffffffffffffffffffffffffffffffffffffffff1673ffffffffffffffffffffffffffffffffffffffff1673ffffffffffffffffffffffffffffffffffffffff1681526020019081526020016000206000898152602001908152602001600020945084600601544210151515612eb757600080fd5b86866040518083805190602001908083835b602083101515612eee5780518252602082019150602081019050602083039250612ec9565b6001836020036101000a03801982511681845116808217855250505050505090500182805190602001908083835b602083101515612f415780518252602082019150602081019050602083039250612f1c565b6001836020036101000a038019825116818451168082178552505050505050905001925050506040518091039020935084600d0160003373ffffffffffffffffffffffffffffffffffffffff1673ffffffffffffffffffffffffffffffffffffffff16815260200190815260200160002060008560001916600019168152602001908152602001600020608060405190810160405290816000820160009054906101000a900473ffffffffffffffffffffffffffffffffffffffff1673ffffffffffffffffffffffffffffffffffffffff1673ffffffffffffffffffffffffffffffffffffffff16815260200160018201548152602001600282015481526020016003820160009054906101000a900460ff16151515158152505092506000836000015173ffffffffffffffffffffffffffffffffffffffff161115156130f0576040517f08c379a00000000000000000000000000000000000000000000000000000000081526004018080602001828103825260138152602001807f4269646465722073686f756c642065786973740000000000000000000000000081525060200191505060405180910390fd5b6000151583606001511515141515613170576040517f08c379a000000000000000000000000000000000000000000000000000000000815260040180806020018281038252601a8152602001807f4269642073686f756c64206e6f742062652072657665616c656400000000000081525060200191505060405180910390fd5b6131798761341c565b90508083604001511015613193578260400151915061334b565b60008560080160009054906101000a900473ffffffffffffffffffffffffffffffffffffffff1673ffffffffffffffffffffffffffffffffffffffff16141561323d57338560080160006101000a81548173ffffffffffffffffffffffffffffffffffffffff021916908373ffffffffffffffffffffffffffffffffffffffff160217905550808560090181905550846007015485600a018190555080836040015103915061334a565b846009015481111561331f57846009015485600a01819055508460080160009054906101000a900473ffffffffffffffffffffffffffffffffffffffff1673ffffffffffffffffffffffffffffffffffffffff166108fc86600901549081150290604051600060405180830381858888f193505050501580156132c4573d6000803e3d6000fd5b50808560090181905550338560080160006101000a81548173ffffffffffffffffffffffffffffffffffffffff021916908373ffffffffffffffffffffffffffffffffffffffff160217905550808360400151039150613349565b84600a0154811115613340578085600a018190555082604001519150613348565b826040015191505b5b5b5b600185600d0160003373ffffffffffffffffffffffffffffffffffffffff1673ffffffffffffffffffffffffffffffffffffffff1681526020019081526020016000206000866000191660001916815260200190815260200160002060030160006101000a81548160ff0219169083151502179055506000821115613412573373ffffffffffffffffffffffffffffffffffffffff166108fc839081150290604051600060405180830381858888f19350505050158015613410573d6000803e3d6000fd5b505b5050505050505050565b6000606060008084925060009150600090505b825181101561361b5760307f010000000000000000000000000000000000000000000000000000000000000002838281518110151561346a57fe5b9060200101517f010000000000000000000000000000000000000000000000000000000000000090047f0100000000000000000000000000000000000000000000000000000000000000027effffffffffffffffffffffffffffffffffffffffffffffffffffffffffffff191610158015613582575060397f010000000000000000000000000000000000000000000000000000000000000002838281518110151561351257fe5b9060200101517f010000000000000000000000000000000000000000000000000000000000000090047f0100000000000000000000000000000000000000000000000000000000000000027effffffffffffffffffffffffffffffffffffffffffffffffffffffffffffff191611155b1561360e576030838281518110151561359757fe5b9060200101517f010000000000000000000000000000000000000000000000000000000000000090047f0100000000000000000000000000000000000000000000000000000000000000027f0100000000000000000000000000000000000000000000000000000000000000900403600a83020191505b808060010191505061342f565b819350505050919050565b6101c0604051908101604052806000815260200160608152602001606081526020016060815260200160608152602001600081526020016000815260200160008152602001600073ffffffffffffffffffffffffffffffffffffffff168152602001600081526020016000815260200160008152602001600060028111156136aa57fe5b8152602001600060018111156136bc57fe5b81525090565b828054600181600116156101000203166002900490600052602060002090601f016020900481019282601f1061370357805160ff1916838001178555613731565b82800160010185558215613731579182015b82811115613730578251825591602001919060010190613715565b5b50905061373e9190613793565b5090565b6040516110d9806137b983390190565b608060405190810160405280600073ffffffffffffffffffffffffffffffffffffffff16815260200160008152602001600081526020016000151581525090565b6137b591905b808211156137b1576000816000905550600101613799565b5090565b90560060806040526040516080806110d9833981018060405281019080805190602001909291908051906020019092919080519060200190929190805190602001909291905050508360008190555082600160006101000a81548173ffffffffffffffffffffffffffffffffffffffff021916908373ffffffffffffffffffffffffffffffffffffffff16021790555081600260006101000a81548173ffffffffffffffffffffffffffffffffffffffff021916908373ffffffffffffffffffffffffffffffffffffffff16021790555080600360006101000a81548173ffffffffffffffffffffffffffffffffffffffff021916908373ffffffffffffffffffffffffffffffffffffffff160217905550346004819055506000600960006101000a81548160ff0219169083151502179055507fced0d874b0fc5d976a1f058c40cb168833abdc77b84836cf0b1cc2523e38545d84848484600454604051808681526020018573ffffffffffffffffffffffffffffffffffffffff1673ffffffffffffffffffffffffffffffffffffffff1681526020018473ffffffffffffffffffffffffffffffffffffffff1673ffffffffffffffffffffffffffffffffffffffff1681526020018373ffffffffffffffffffffffffffffffffffffffff1673ffffffffffffffffffffffffffffffffffffffff1681526020018281526020019550505050505060405180910390a150505050610eb9806102206000396000f3006080604052600436106100af576000357c0100000000000000000000000000000000000000000000000000000000900463ffffffff16806308551a53146100b45780630bda4dbf1461010b5780637150d8ae14610136578063a97d1b101461018d578063aa8c217c146101d0578063b8d08db2146101fb578063c5ce391114610226578063d1a52e3014610251578063f3d2590414610280578063f919257c14610356578063fe25e00a14610399575b600080fd5b3480156100c057600080fd5b506100c96103f0565b604051808273ffffffffffffffffffffffffffffffffffffffff1673ffffffffffffffffffffffffffffffffffffffff16815260200191505060405180910390f35b34801561011757600080fd5b50610120610416565b6040518082815260200191505060405180910390f35b34801561014257600080fd5b5061014b61041c565b604051808273ffffffffffffffffffffffffffffffffffffffff1673ffffffffffffffffffffffffffffffffffffffff16815260200191505060405180910390f35b34801561019957600080fd5b506101ce600480360381019080803573ffffffffffffffffffffffffffffffffffffffff169060200190929190505050610442565b005b3480156101dc57600080fd5b506101e56108f4565b6040518082815260200191505060405180910390f35b34801561020757600080fd5b506102106108fa565b6040518082815260200191505060405180910390f35b34801561023257600080fd5b5061023b610900565b6040518082815260200191505060405180910390f35b34801561025d57600080fd5b50610266610906565b604051808215151515815260200191505060405180910390f35b34801561028c57600080fd5b50610295610919565b604051808773ffffffffffffffffffffffffffffffffffffffff1673ffffffffffffffffffffffffffffffffffffffff1681526020018673ffffffffffffffffffffffffffffffffffffffff1673ffffffffffffffffffffffffffffffffffffffff1681526020018573ffffffffffffffffffffffffffffffffffffffff1673ffffffffffffffffffffffffffffffffffffffff16815260200184151515158152602001838152602001828152602001965050505050505060405180910390f35b34801561036257600080fd5b50610397600480360381019080803573ffffffffffffffffffffffffffffffffffffffff1690602001909291905050506109b5565b005b3480156103a557600080fd5b506103ae610e67565b604051808273ffffffffffffffffffffffffffffffffffffffff1673ffffffffffffffffffffffffffffffffffffffff16815260200191505060405180910390f35b600160009054906101000a900473ffffffffffffffffffffffffffffffffffffffff1681565b60085481565b600260009054906101000a900473ffffffffffffffffffffffffffffffffffffffff1681565b600960009054906101000a900460ff161515156104c7576040517f08c379a000000000000000000000000000000000000000000000000000000000815260040180806020018281038252601d8152602001807f46756e64732073686f756c64206e6f742062652064697362757273656400000081525060200191505060405180910390fd5b600160009054906101000a900473ffffffffffffffffffffffffffffffffffffffff1673ffffffffffffffffffffffffffffffffffffffff168173ffffffffffffffffffffffffffffffffffffffff1614806105705750600260009054906101000a900473ffffffffffffffffffffffffffffffffffffffff1673ffffffffffffffffffffffffffffffffffffffff168173ffffffffffffffffffffffffffffffffffffffff16145b806105c85750600360009054906101000a900473ffffffffffffffffffffffffffffffffffffffff1673ffffffffffffffffffffffffffffffffffffffff168173ffffffffffffffffffffffffffffffffffffffff16145b1515610662576040517f08c379a000000000000000000000000000000000000000000000000000000000815260040180806020018281038252602b8152602001807f43616c6c65722073686f756c642062652073656c6c6572206f7220627579657281526020017f206f72206172626974657200000000000000000000000000000000000000000081525060400191505060405180910390fd5b600760008273ffffffffffffffffffffffffffffffffffffffff1673ffffffffffffffffffffffffffffffffffffffff16815260200190815260200160002060009054906101000a900460ff1615156107c5576001600760008373ffffffffffffffffffffffffffffffffffffffff1673ffffffffffffffffffffffffffffffffffffffff16815260200190815260200160002060006101000a81548160ff02191690831515021790555060016008600082825401925050819055507fe31e37941fee7dca6bb1597da71841499d8cd0dfc5553e0889f6d1ca6038ce966000548260405180838152602001806020018373ffffffffffffffffffffffffffffffffffffffff1673ffffffffffffffffffffffffffffffffffffffff1681526020018281038252600f8152602001807f726566756e6420746f2062757965720000000000000000000000000000000000815250602001935050505060405180910390a15b60026008541015156108f157600260009054906101000a900473ffffffffffffffffffffffffffffffffffffffff1673ffffffffffffffffffffffffffffffffffffffff166108fc6004549081150290604051600060405180830381858888f1935050505015801561083b573d6000803e3d6000fd5b506001600960006101000a81548160ff0219169083151502179055507fdde1058856b8611b1f49ef2ebaef10c0441e48e8a6cbbec1ebdcbfb1862b57b4600054600454600260009054906101000a900473ffffffffffffffffffffffffffffffffffffffff16604051808481526020018381526020018273ffffffffffffffffffffffffffffffffffffffff1673ffffffffffffffffffffffffffffffffffffffff168152602001935050505060405180910390a15b50565b60045481565b60065481565b60005481565b600960009054906101000a900460ff1681565b600080600080600080600160009054906101000a900473ffffffffffffffffffffffffffffffffffffffff16600260009054906101000a900473ffffffffffffffffffffffffffffffffffffffff16600360009054906101000a900473ffffffffffffffffffffffffffffffffffffffff16600960009054906101000a900460ff16600654600854955095509550955095509550909192939495565b600960009054906101000a900460ff16151515610a3a576040517f08c379a000000000000000000000000000000000000000000000000000000000815260040180806020018281038252601d8152602001807f46756e64732073686f756c64206e6f742062652064697362757273656400000081525060200191505060405180910390fd5b600160009054906101000a900473ffffffffffffffffffffffffffffffffffffffff1673ffffffffffffffffffffffffffffffffffffffff168173ffffffffffffffffffffffffffffffffffffffff161480610ae35750600260009054906101000a900473ffffffffffffffffffffffffffffffffffffffff1673ffffffffffffffffffffffffffffffffffffffff168173ffffffffffffffffffffffffffffffffffffffff16145b80610b3b5750600360009054906101000a900473ffffffffffffffffffffffffffffffffffffffff1673ffffffffffffffffffffffffffffffffffffffff168173ffffffffffffffffffffffffffffffffffffffff16145b1515610bd5576040517f08c379a000000000000000000000000000000000000000000000000000000000815260040180806020018281038252602b8152602001807f43616c6c65722073686f756c642062652073656c6c6572206f7220627579657281526020017f206f72206172626974657200000000000000000000000000000000000000000081525060400191505060405180910390fd5b600560008273ffffffffffffffffffffffffffffffffffffffff1673ffffffffffffffffffffffffffffffffffffffff16815260200190815260200160002060009054906101000a900460ff161515610d38576001600560008373ffffffffffffffffffffffffffffffffffffffff1673ffffffffffffffffffffffffffffffffffffffff16815260200190815260200160002060006101000a81548160ff02191690831515021790555060016006600082825401925050819055507fe31e37941fee7dca6bb1597da71841499d8cd0dfc5553e0889f6d1ca6038ce966000548260405180838152602001806020018373ffffffffffffffffffffffffffffffffffffffff1673ffffffffffffffffffffffffffffffffffffffff168152602001828103825260118152602001807f72656c6561736520746f2073656c6c6572000000000000000000000000000000815250602001935050505060405180910390a15b6002600654101515610e6457600160009054906101000a900473ffffffffffffffffffffffffffffffffffffffff1673ffffffffffffffffffffffffffffffffffffffff166108fc6004549081150290604051600060405180830381858888f19350505050158015610dae573d6000803e3d6000fd5b506001600960006101000a81548160ff0219169083151502179055507fdde1058856b8611b1f49ef2ebaef10c0441e48e8a6cbbec1ebdcbfb1862b57b4600054600454600160009054906101000a900473ffffffffffffffffffffffffffffffffffffffff16604051808481526020018381526020018273ffffffffffffffffffffffffffffffffffffffff1673ffffffffffffffffffffffffffffffffffffffff168152602001935050505060405180910390a15b50565b600360009054906101000a900473ffffffffffffffffffffffffffffffffffffffff16815600a165627a7a7230582076167712fa3207da79ad4d802443c16f7299f59225a50824da95333e1d441e8b0029a165627a7a723058204edd7eb2e3072cb039153db94346e00b6f1958c66931c054acb810f32e4cafc50029",
  "source": "pragma solidity ^0.4.17;\r\n\r\nimport \"contracts/Escrow.sol\";\r\n\r\ncontract EcommerceStore{\r\n    enum ProductStatus { Open, Sold, Unsold }\r\n    enum ProductCondition { New, Used }\r\n\r\n    uint public productIndex;\r\n    mapping (uint => address) productIdInStore;\r\n    mapping (address => mapping(uint => Product)) stores;\r\n    mapping (uint => address) productEscrow;\r\n\r\n    struct Product{\r\n        uint id;\r\n        string name;\r\n        string category;\r\n        string imageLink;\r\n        string descLink;\r\n        uint auctionStartTime;\r\n        uint auctionEndTime;\r\n        uint startPrice;\r\n        address highestBidder;\r\n        uint highestBid;\r\n        uint secondHighestBid;\r\n        uint totalBids;\r\n        ProductStatus status;\r\n        ProductCondition condition;\r\n        mapping (address => mapping (bytes32 => Bid)) bids;\r\n    }\r\n    \r\n    struct Bid{\r\n        address bidder;\r\n        uint productId;\r\n        uint value;\r\n        bool revealed;\r\n    }\r\n\r\n    constructor() public{\r\n        productIndex = 0;\r\n    }\r\n\r\n    event NewProduct(uint _productId, string _name, string _category, string _imageLink, string _descLink, uint _auctionStartTime, uint _auctionEndTime, uint _startPrice, uint _productCondition);\r\n\r\n    function addProductToStore(string _name, string _category, string _imageLink, string _descLink\r\n        , uint _auctionStartTime, uint _auctionEndTime, uint _startPrice, uint _productCondition) public{\r\n        require(now < _auctionEndTime, \"Auction end time should be later than now.\");\r\n        require(_auctionStartTime < _auctionEndTime, \"Auction start time should be earlier than end time.\");\r\n        productIndex += 1;\r\n        Product memory product = Product(productIndex, _name, _category, _imageLink, _descLink\r\n            , _auctionStartTime, _auctionEndTime, _startPrice, 0, 0, 0, 0, ProductStatus.Open, ProductCondition(_productCondition));\r\n        stores[msg.sender][productIndex] = product;\r\n        productIdInStore[productIndex] = msg.sender;\r\n        emit NewProduct(productIndex, _name, _category, _imageLink, _descLink, _auctionStartTime, _auctionEndTime, _startPrice, _productCondition);\r\n    }\r\n\r\n    function getProduct(uint _productId) public view returns (uint, string, string, string, string, uint, uint, uint, ProductStatus, ProductCondition){\r\n        Product memory product = stores[productIdInStore[_productId]][_productId];\r\n        return (product.id, product.name, product.category, product.imageLink, product.descLink\r\n            , product.auctionStartTime, product.auctionEndTime, product.startPrice, product.status, product.condition);    \r\n    }\r\n\r\n    function bid(uint _productId, bytes32 _bid) public payable returns (bool){\r\n        Product storage product = stores[productIdInStore[_productId]][_productId];\r\n        require(now >= product.auctionStartTime, \"Current time should be later than auction start time\");\r\n        require(now <= product.auctionEndTime, \"Current time should be earlier than auction end time\");\r\n        require(msg.value > product.startPrice, \"Value should be larger than start price\");\r\n        require(product.bids[msg.sender][_bid].bidder == 0, \"Bidder should be null\");\r\n        product.bids[msg.sender][_bid] = Bid(msg.sender, _productId, msg.value, false);\r\n        product.totalBids += 1;\r\n        return true;\r\n    }\r\n\r\n    function revealBid(uint _productId, string _amount, string _secret) public {\r\n        Product storage product = stores[productIdInStore[_productId]][_productId];\r\n        require(now >= product.auctionEndTime);\r\n        bytes32 sealedBid = sha3(_amount, _secret);\r\n        Bid memory bidInfo = product.bids[msg.sender][sealedBid];\r\n        require(bidInfo.bidder > 0, \"Bidder should exist\");\r\n        require(bidInfo.revealed == false, \"Bid should not be revealed\");\r\n\r\n        uint refund;\r\n        uint amount = stringToUint(_amount);\r\n        if(bidInfo.value < amount){\r\n            refund = bidInfo.value;\r\n        } else {\r\n            if(address(product.highestBidder) == 0){\r\n                product.highestBidder = msg.sender;\r\n                product.highestBid = amount;\r\n                product.secondHighestBid = product.startPrice;\r\n                refund = bidInfo.value - amount;\r\n            } else{\r\n                if(amount > product.highestBid){\r\n                    product.secondHighestBid = product.highestBid;\r\n                    product.highestBidder.transfer(product.highestBid);\r\n                    product.highestBid = amount;\r\n                    product.highestBidder = msg.sender;\r\n                    refund = bidInfo.value - amount;\r\n                } else if(amount > product.secondHighestBid){\r\n                    product.secondHighestBid = amount;\r\n                    refund = bidInfo.value;\r\n                } else{\r\n                    refund = bidInfo.value;\r\n                }\r\n            }\r\n        }\r\n        product.bids[msg.sender][sealedBid].revealed = true;\r\n        if(refund > 0){\r\n            msg.sender.transfer(refund);\r\n        }\r\n    }\r\n\r\n    function stringToUint(string s) private pure returns (uint){\r\n        bytes memory b = bytes(s);\r\n        uint result = 0;\r\n        for(uint i = 0; i < b.length; i++){\r\n            if(b[i] >= 48 && b[i] <= 57){\r\n                result = result * 10 + (uint(b[i]) - 48);\r\n            }\r\n        }\r\n        return result;\r\n    }\r\n\r\n    function highestBidderInfo(uint _productId) public view returns (address, uint, uint){\r\n        Product memory product = stores[productIdInStore[_productId]][_productId];\r\n        return (product.highestBidder, product.highestBid, product.secondHighestBid);\r\n    }\r\n\r\n    function totalBids(uint _productId) public view returns (uint){\r\n        Product memory product = stores[productIdInStore[_productId]][_productId];\r\n        return product.totalBids;\r\n    }\r\n\r\n    function finalizeAuction(uint _productId) public {\r\n        Product memory product = stores[productIdInStore[_productId]][_productId];\r\n        require((now > product.auctionEndTime), \"Current time should be later than auction end time\");\r\n        require(product.status == ProductStatus.Open, \"Product status should be open\");\r\n        require(msg.sender != productIdInStore[_productId], \"Caller should not be seller\");\r\n        require(msg.sender != product.highestBidder, \"Caller should not be buyer\");\r\n\r\n        if(product.highestBidder == 0){\r\n            product.status = ProductStatus.Unsold;\r\n        } else{\r\n            Escrow escrow = (new Escrow).value(product.secondHighestBid)(_productId, productIdInStore[_productId], product.highestBidder, msg.sender);\r\n            productEscrow[_productId] =  address(escrow);\r\n            product.status = ProductStatus.Sold;\r\n            uint refund = product.highestBid - product.secondHighestBid;\r\n            product.highestBidder.transfer(refund);\r\n        }\r\n        stores[productIdInStore[_productId]][_productId] = product;\r\n    }\r\n\r\n    function escrowAddressForProduct(uint _productId) public view returns(address){\r\n        return productEscrow[_productId];\r\n    }\r\n    function escrowInfo(uint _productId) public view returns (address, address, address, bool, uint, uint){\r\n        return Escrow(productEscrow[_productId]).escrowInfo();\r\n    }\r\n    function releaseAmountToSeller(uint _productId) public {\r\n        Escrow(productEscrow[_productId]).realseAmountToSeller(msg.sender);\r\n    }\r\n    function refundAmountToBuyer(uint _productId) public {\r\n        Escrow(productEscrow[_productId]).refundAmountToBuyer(msg.sender);\r\n    }\r\n    function getProductCount() public view returns(uint){\r\n        return productIndex;\r\n    }\r\n}\r\n",
  "sourcePath": "D:\\Code\\truffe\\dapp\\src\\contracts\\EcommerceStore.sol",
  "compiler": {
    "name": "solc",
    "version": "0.4.24+commit.e67f0147.Emscripten.clang"
  },
  "schemaVersion": "2.0.1",
  "updatedAt": "2021-05-12T07:23:44.634Z"
}